:020000040000FA
:100000007D28000000000000000083120313861703
:10001000061606138616861106155F200800831241
:1000200003138617061606178612861506115F201B
:10003000080083120313061686178611061106138D
:1000400086165F2008008312031306168617861192
:100050000611061786125F20080083120313861705
:10006000061606138612861106155F2008008312F5
:1000700003138617061606138612861506115F20CF
:1000800008008312031386170616061386128611BC
:1000900006115F200800A530A100A10B522808001E
:1000A000A530A200A20B5228000000000800633017
:1000B000A3005020A30B5928000000000800633063
:1000C000A40057204B206400A40B6128000000000E
:1000D00008002630A70203180800A8010800A80598
:1000E000031D0520412008005720831203131F150C
:1000F0001F1978280C131E080800031383160130FB
:1001000086000030880083120313860183120313D4
:100110008801FF30831603138500831603130C1325
:1001200083120313C9309F008316031380309F008E
:10013000831203131E30A7000530A500831203139A
:100140000C1383120313A601742083120313A60059
:1001500069206F209E2805200814A50BAB280530C8
:10016000A50008100F208814A50BB2280530A500A3
:10017000881019200815A50BB9280530A50008110D
:1001800023208815A50BC0280530A50088112D2037
:100190000816A50BC7280530A500081237208816B9
:0A01A000A50BCE288812FF30860060
:0401AA0000340034E9
:02400E00FB3D78
:00000001FF
