:020000040000FA
:100000000528000000000000000003138316FC30E8
:1000100086008312003086000530B0002620B00B29
:100020000E280530B0002E20B00B13280530B0008C
:100030003620B00B18280530B0004620B00B1D2824
:100040000530B0004E20B00B222825288617061652
:1000500006138616861106156A20080086170616EE
:1000600006178612861506116A20080006168617DE
:1000700086110611061386166A20080006168617D2
:1000800086110611061786126A20080086130616C6
:1000900006138612861106156A20080086130616B6
:1000A00006138612861506116A200800A530A100E5
:1000B000A10B5D280800A530A200A20B5D2800005E
:1000C000000008006330A3005B20A30B642800003D
:1000D000000008006330A400622056206400A40BD6
:0800E0006C280000000008007C
:0400E80000340034AC
:02400E00FB3F76
:00000001FF
