:020000040000FA
:1000000005280000000000000000031383160130E3
:1000100086008312031386010530A5002620A50B58
:100020000E280530A5002E20A50B13280530A500AD
:100030003620A50B18280530A5004620A50B1D2845
:100040000530A5004E20A50B222825288617061668
:1000500006138616861106156A20080086170616EE
:1000600006178612861506116A20080006168617DE
:1000700086110611061386166A20080006168617D2
:1000800086110611061786126A20080086170616C2
:1000900006138612861106156A20080086170616B2
:1000A00006138612861506116A200800A530A100E5
:1000B000A10B5D280800A530A200A20B5D2800005E
:1000C000000008006330A3005B20A30B642800003D
:1000D000000008006330A400622056206400A40BD6
:0800E0006C280000000008007C
:0400E80000340034AC
:02400E00FB3D78
:00000001FF
