:020000040000FA
:1000000053280000000000000000861706160613A3
:10001000861686110615492008008617061606174B
:1000200086128615061149200800061686178611C5
:100030000611061386164920080006168617861133
:1000400006110617861249200800861706160613A1
:100050008612861106154920080086170616061313
:1000600086128615061149200800A530A100A10BB3
:100070003C280800A530A200A20B3C28000000008C
:1000800008006330A3003A20A30B432800000000BF
:1000900008006330A400412035206400A40B4B28E5
:1000A00000000000080003138316013086000030B2
:1000B000880083120313860183120313880105301D
:1000C000A50005200814A50B61280530A50008101F
:1000D0000D208814A50B68280530A5008810152070
:1000E0000815A50B6F280530A50008111D208815DF
:1000F000A50B76280530A500881125200816A50B2C
:100100007D280530A50008122D208816A50B84280F
:060110008812FF3086009A
:04011600003400347D
:02400E00FB3D78
:00000001FF
